S01900004C45442053657175656E63652056332E302E73726563D6
S11300000C9432000C94CB020C94E1020C94440046
S11300100C9444000C9444000C9444000C9444004C
S11300200C9444000C9444000C9444000C94F70287
S11300300C9444000C9444000C9444000C9444002C
S11300400C9444000C9444000C9444000C9444001C
S11300500C9444000E09180922092C093609400998
S11300604A09540911241FBECFE5D8E0DEBFCDBF35
S113007020E0A0E6B0E001C01D92A336B207E1F78C
S11300800E944F000C948D090C940000883228F4CF
S113009060E00E947D0080E0089581E0089580E0A2
S11300A00E94460081E00E94460082E00E944600D1
S11300B083E00E94460062E08AE10E947D0062E0E3
S11300C08BE10E947D00789460E080E00E946F02E2
S11300D060E081E00E946F0280E00E945D0281E0A6
S11300E00E945D0240E063E080E00E94E0080E941C
S11300F0830986E00E948109FFCF982F96959695F3
S11301009695953008F0F9C08770613031F008F4A5
S1130110A4C0623009F451C0EFC09130C1F028F09E
S1130120923039F19330B9F1E7C04AB321E030E0BD
S1130130B90102C0660F771F8A95E2F7CB0180955B
S1130140942F98239ABB9BB389238BBBD5C047B309
S113015021E030E0B90102C0660F771F8A95E2F70B
S1130160CB018095942F982397BB98B3892388BBA0
S1130170C3C044B321E030E0B90102C0660F771F69
S11301808A95E2F7CB018095942F982394BB95B37D
S1130190892385BBB1C041B321E030E0B90102C07D
S11301A0660F771F8A95E2F7CB018095942F9823E9
S11301B091BB92B3892382BB9FC09130C1F028F0D8
S11301C0923039F19330B9F197C04AB321E030E06D
S11301D0B90102C0660F771F8A95E2F7CB01962F0B
S11301E0909594239ABB9BB3892B8BBB85C047B353
S11301F021E030E0B90102C0660F771F8A95E2F76B
S1130200CB01962F9095942397BB98B3892B88BBE9
S113021073C044B321E030E0B90102C0660F771F18
S11302208A95E2F7CB01962F9095942394BB95B3CE
S1130230892B85BB61C041B321E030E0B90102C024
S1130240660F771F8A95E2F7CB01962F909594233A
S113025091BB92B3892B82BB4FC09130C1F028F07F
S1130260923039F19330B9F147C04BB321E030E01B
S1130270B90102C0660F771F8A95E2F7CB01962F6A
S1130280909594239BBB9AB3892B8ABB35C048B302
S113029021E030E0B90102C0660F771F8A95E2F7CA
S11302A0CB01962F9095942398BB97B3892B87BB4A
S11302B023C045B321E030E0B90102C0660F771FC7
S11302C08A95E2F7CB01962F9095942395BB94B32E
S11302D0892B84BB11C042B321E030E0B90102C0D4
S11302E0660F771F8A95E2F7CB01962F909594239A
S11302F092BB91B3892B81BB089582E00895982F16
S1130300969596959695953008F08EC0633008F0D2
S11303108DC08770613009F040C09130A1F028F0A1
S11303209230F9F0933059F183C04BB321E030E0BF
S1130330B90102C0660F771F8A95E2F7CB01842BBF
S11303408BBB80E0089548B321E030E0B90102C0DE
S1130350660F771F8A95E2F7CB01842B88BB80E078
S1130360089545B321E030E0B90102C0660F771F5C
S11303708A95E2F7CB01842B85BB80E0089542B3D4
S113038021E030E0B90102C0660F771F8A95E2F7D9
S1130390CB01842B82BB80E00895611144C091306D
S11303A0A9F028F0923009F1933071F143C04BB3B6
S11303B021E030E0B90102C0660F771F8A95E2F7A9
S11303C0CB01809584238BBB80E0089548B321E062
S11303D030E0B90102C0660F771F8A95E2F7CB01BE
S11303E08095842388BB80E0089545B321E030E004
S11303F0B90102C0660F771F8A95E2F7CB01809599
S1130400842385BB80E0089542B321E030E0B90144
S113041002C0660F771F8A95E2F7CB01809584238B
S113042082BB80E00895089582E0089583E00895F2
S113043080E0089580E00895982F977086958695BA
S11304408695813099F028F08230E9F0833041F1CB
S113045008954BB321E030E0B90102C0660F771F65
S11304609A95E2F7CB0184278BBB089548B321E02A
S113047030E0B90102C0660F771F9A95E2F7CB010D
S1130480842788BB089545B321E030E0B90102C058
S1130490660F771F9A95E2F7CB01842785BB0895F1
S11304A042B321E030E0B90102C0660F771F9A958C
S11304B0E2F7CB01842782BB0895813041F018F024
S11304C0823049F008958BB780648BBF08958BB751
S11304D080688BBF08958BB780628BBF089581308D
S11304E049F120F0823009F449C00895613069F07F
S11304F028F0623089F06330B1F0089585B78E7FBB
S113050085BF85B78D7F85BF089585B7816085BF19
S113051085B78D7F85BF089585B78E7F85BF85B7E5
S1130520826085BF089585B7816085BF85B7826085
S113053085BF0895613069F028F0623089F0633036
S1130540B1F0089585B78B7F85BF85B7877F85BF59
S1130550089585B7846085BF85B7877F85BF089573
S113056085B78B7F85BF85B7886085BF089585B7BC
S1130570846085BF85B7886085BF0895623019F0AF
S1130580633029F0089584B78F7B84BF089584B7BE
S1130590806484BF08951F920F920FB60F921124A6
S11305A08F93809161008F5F883019F08093610090
S11305B002C0109261008F910F900FBE0F901F9098
S11305C018951F920F920FB60F9211248F9380915A
S11305D062008F5F853019F08093620002C0109230
S11305E062008F910F900FBE0F901F9018951F926D
S11305F00F920FB60F9211242F933F934F935F9353
S11306006F937F938F939F93AF93BF93EF93FF93D6
S113061080916200811123C1809160008F5F80937B
S11306206000909161009130B9F4853049F460E044
S113063080E00E947F0186E090E00E9481090CC066
S11306408C3309F058C080E00E941C0210926000B4
S113065086E090E00E94810980916100823001F57A
S113066080916000853069F460E081E00E947F0140
S113067060E080E00E947F0186E090E00E948109B2
S11306800FC08C3309F069C081E00E941C0280E035
S11306900E941C021092600086E090E00E94810992
S11306A080916100833039F580916000853089F450
S11306B060E082E00E947F0160E081E00E947F01AF
S11306C060E080E00E947F0186E090E00E94810962
S11306D012C08C3309F070C082E00E941C0281E0D9
S11306E00E941C0280E00E941C021092600086E0BE
S11306F090E00E94810980916100843071F58091BD
S113070060008530A9F460E083E00E947F0160E02E
S113071082E00E947F0160E081E00E947F0160E04E
S113072080E00E947F0186E090E00E94810915C06C
S11307308C3309F06CC083E00E941C0282E00E94AA
S11307401C0281E00E941C0280E00E941C021092A4
S1130750600086E090E00E9481098091610085300C
S113076059F5809160008530A9F460E083E00E942F
S11307707F0160E082E00E947F0160E081E00E94EE
S11307807F0160E080E00E947F0186E090E00E94AB
S1130790810912C08C3309F062C083E00E941C02FC
S11307A082E00E941C0281E00E941C021092600000
S11307B086E090E00E94810980916100863039F5DD
S11307C0809160008530A9F460E083E00E947F019D
S11307D060E082E00E947F0160E081E00E947F018E
S11307E060E080E00E947F0186E090E00E94810941
S11307F00EC08C33A1F583E00E941C0282E00E94AB
S11308001C021092600086E090E00E9481098091B1
S11308106100873021F5809160008530A9F460E0A3
S113082083E00E947F0160E082E00E947F0160E03B
S113083081E00E947F0160E080E00E947F0186E009
S113084090E00E9481090BC08C3349F483E00E943C
S11308501C021092600086E090E00E948109809161
S11308606200813009F023C1809160008F5F809322
S11308706000909161009130B9F48C3049F460E0EB
S113088080E00E947F0186E090E00E9481090CC014
S11308908C3309F058C080E00E941C021092600062
S11308A086E090E00E94810980916100823001F528
S11308B0809160008C3069F460E081E00E947F01E7
S11308C060E080E00E947F0186E090E00E94810960
S11308D00FC08C3309F069C081E00E941C0280E0E3
S11308E00E941C021092600086E090E00E94810940
S11308F080916100833039F5809160008C3089F4F7
S113090060E082E00E947F0160E081E00E947F015C
S113091060E080E00E947F0186E090E00E9481090F
S113092012C08C3309F070C082E00E941C0281E086
S11309300E941C0280E00E941C021092600086E06B
S113094090E00E94810980916100843071F580916A
S113095060008C30A9F460E083E00E947F0160E0D5
S113096082E00E947F0160E081E00E947F0160E0FC
S113097080E00E947F0186E090E00E94810915C01A
S11309808C3309F06CC083E00E941C0282E00E9458
S11309901C0281E00E941C0280E00E941C02109252
S11309A0600086E090E00E948109809161008530BA
S11309B059F5809160008C30A9F460E083E00E94D6
S11309C07F0160E082E00E947F0160E081E00E949C
S11309D07F0160E080E00E947F0186E090E00E9459
S11309E0810912C08C3309F062C083E00E941C02AA
S11309F082E00E941C0281E00E941C0210926000AE
S1130A0086E090E00E94810980916100863039F58A
S1130A10809160008C30A9F460E083E00E947F0143
S1130A2060E082E00E947F0160E081E00E947F013B
S1130A3060E080E00E947F0186E090E00E948109EE
S1130A400EC08C33A1F583E00E941C0282E00E9458
S1130A501C021092600086E090E00E94810980915F
S1130A606100873021F5809160008C30A9F460E04A
S1130A7083E00E947F0160E082E00E947F0160E0E9
S1130A8081E00E947F0160E080E00E947F0186E0B7
S1130A9090E00E9481090BC08C3349F483E00E94EA
S1130AA01C021092600086E090E00E94810980910F
S1130AB06200823009F023C1809160008F5F8093CF
S1130AC06000909161009130B9F4813149F460E0A3
S1130AD080E00E947F0186E090E00E9481090CC0C2
S1130AE08C3309F058C080E00E941C021092600010
S1130AF086E090E00E94810980916100823001F5D6
S1130B0080916000813169F460E081E00E947F019E
S1130B1060E080E00E947F0186E090E00E9481090D
S1130B200FC08C3309F069C081E00E941C0280E090
S1130B300E941C021092600086E090E00E948109ED
S1130B4080916100833039F580916000813189F4AE
S1130B5060E082E00E947F0160E081E00E947F010A
S1130B6060E080E00E947F0186E090E00E948109BD
S1130B7012C08C3309F070C082E00E941C0281E034
S1130B800E941C0280E00E941C021092600086E019
S1130B9090E00E94810980916100843071F5809118
S1130BA060008131A9F460E083E00E947F0160E08D
S1130BB082E00E947F0160E081E00E947F0160E0AA
S1130BC080E00E947F0186E090E00E94810915C0C8
S1130BD08C3309F06CC083E00E941C0282E00E9406
S1130BE01C0281E00E941C0280E00E941C02109200
S1130BF0600086E090E00E94810980916100853068
S1130C0059F5809160008131A9F460E083E00E948D
S1130C107F0160E082E00E947F0160E081E00E9449
S1130C207F0160E080E00E947F0186E090E00E9406
S1130C30810912C08C3309F062C083E00E941C0257
S1130C4082E00E941C0281E00E941C02109260005B
S1130C5086E090E00E94810980916100863039F538
S1130C60809160008131A9F460E083E00E947F01FB
S1130C7060E082E00E947F0160E081E00E947F01E9
S1130C8060E080E00E947F0186E090E00E9481099C
S1130C900EC08C33A1F583E00E941C0282E00E9406
S1130CA01C021092600086E090E00E94810980910D
S1130CB06100873021F5809160008131A9F460E002
S1130CC083E00E947F0160E082E00E947F0160E097
S1130CD081E00E947F0160E080E00E947F0186E065
S1130CE090E00E9481090BC08C3349F483E00E9498
S1130CF01C021092600086E090E00E9481098091BD
S1130D006200833009F023C1809160008F5F80937B
S1130D106000909161009130B9F48E3149F460E043
S1130D2080E00E947F0186E090E00E9481090CC06F
S1130D308C3309F058C080E00E941C0210926000BD
S1130D4086E090E00E94810980916100823001F583
S1130D50809160008E3169F460E081E00E947F013F
S1130D6060E080E00E947F0186E090E00E948109BB
S1130D700FC08C3309F069C081E00E941C0280E03E
S1130D800E941C021092600086E090E00E9481099B
S1130D9080916100833039F5809160008E3189F44F
S1130DA060E082E00E947F0160E081E00E947F01B8
S1130DB060E080E00E947F0186E090E00E9481096B
S1130DC012C08C3309F070C082E00E941C0281E0E2
S1130DD00E941C0280E00E941C021092600086E0C7
S1130DE090E00E94810980916100843071F58091C6
S1130DF060008E31A9F460E083E00E947F0160E02E
S1130E0082E00E947F0160E081E00E947F0160E057
S1130E1080E00E947F0186E090E00E94810915C075
S1130E208C3309F06CC083E00E941C0282E00E94B3
S1130E301C0281E00E941C0280E00E941C021092AD
S1130E40600086E090E00E94810980916100853015
S1130E5059F5809160008E31A9F460E083E00E942E
S1130E607F0160E082E00E947F0160E081E00E94F7
S1130E707F0160E080E00E947F0186E090E00E94B4
S1130E80810912C08C3309F062C083E00E941C0205
S1130E9082E00E941C0281E00E941C021092600009
S1130EA086E090E00E94810980916100863039F5E6
S1130EB0809160008E31A9F460E083E00E947F019C
S1130EC060E082E00E947F0160E081E00E947F0197
S1130ED060E080E00E947F0186E090E00E9481094A
S1130EE00EC08C33A1F583E00E941C0282E00E94B4
S1130EF01C021092600086E090E00E9481098091BB
S1130F006100873021F5809160008E31A9F460E0A2
S1130F1083E00E947F0160E082E00E947F0160E044
S1130F2081E00E947F0160E080E00E947F0186E012
S1130F3090E00E9481090BC08C3349F483E00E9445
S1130F401C021092600086E090E00E94810980916A
S1130F506200843009F023C1809160008F5F809328
S1130F606000909161009130B9F4823349F460E0FB
S1130F7080E00E947F0186E090E00E9481090CC01D
S1130F808C3309F058C080E00E941C02109260006B
S1130F9086E090E00E94810980916100823001F531
S1130FA080916000823369F460E081E00E947F01F7
S1130FB060E080E00E947F0186E090E00E94810969
S1130FC00FC08C3309F069C081E00E941C0280E0EC
S1130FD00E941C021092600086E090E00E94810949
S1130FE080916100833039F580916000823389F407
S1130FF060E082E00E947F0160E081E00E947F0166
S113100060E080E00E947F0186E090E00E94810918
S113101012C08C3309F070C082E00E941C0281E08F
S11310200E941C0280E00E941C021092600086E074
S113103090E00E94810980916100843071F5809173
S113104060008233A9F460E083E00E947F0160E0E5
S113105082E00E947F0160E081E00E947F0160E005
S113106080E00E947F0186E090E00E94810915C023
S11310708C3309F06CC083E00E941C0282E00E9461
S11310801C0281E00E941C0280E00E941C0210925B
S1131090600086E090E00E948109809161008530C3
S11310A059F5809160008233A9F460E083E00E94E6
S11310B07F0160E082E00E947F0160E081E00E94A5
S11310C07F0160E080E00E947F0186E090E00E9462
S11310D0810912C08C3309F062C083E00E941C02B3
S11310E082E00E941C0281E00E941C0210926000B7
S11310F086E090E00E94810980916100863039F594
S1131100809160008233A9F460E083E00E947F0153
S113111060E082E00E947F0160E081E00E947F0144
S113112060E080E00E947F0186E090E00E948109F7
S11311300EC08C33A1F583E00E941C0282E00E9461
S11311401C021092600086E090E00E948109809168
S11311506100873021F5809160008233A9F460E05A
S113116083E00E947F0160E082E00E947F0160E0F2
S113117081E00E947F0160E080E00E947F0186E0C0
S113118090E00E9481090BC08C3349F483E00E94F3
S11311901C021092600086E090E00E948109FF9199
S11311A0EF91BF91AF919F918F917F916F915F91DB
S11311B04F913F912F910F900FBE0F901F90189554
S11311C0813069F028F0823089F08330B1F01BC09F
S11311D083B78F7B83BF83B7877F83BF14C083B7F5
S11311E0806483BF83B7877F83BF0DC083B78F7B42
S11311F083BF83B7886083BF06C083B7806483BF1F
S113120083B7886083BF862F90E08830910508F00B
S113121054C0FC01E65DFF4F0C94870983B78E7FB1
S113122083BF83B78D7F83BF83B78B7F83BF45C065
S113123083B7816083BF83B78D7F83BF83B78B7F81
S113124083BF3BC083B78E7F83BF83B7826083BF76
S113125083B78B7F83BF31C083B7816083BF83B77C
S1131260826083BF83B78B7F83BF27C083B78E7FA2
S113127083BF83B78D7F83BF83B7846083BF1DC063
S113128083B7816083BF83B78D7F83BF83B7846057
S113129083BF13C083B78E7F83BF83B7826083BF4E
S11312A083B7846083BF09C083B7816083BF83B77A
S11312B0826083BF83B7846083BF413069F028F0C4
S11312C0423089F04330B1F0089583B78F7E83BFF5
S11312D083B78F7D83BF089583B7806183BF83B74E
S11312E08F7D83BF089583B78F7E83BF83B780626A
S11312F083BF089583B7806183BF83B7806283BF50
S1131300089582BF089589B7816089BF0895EE0F5B
S1111310FF1F0590F491E02D0994F894FFCF8F
S9030000FC
