:100000000C942A000C946D020C943C000C943C005F
:100010000C943C000C943C000C943C000C943C0070
:100020000C943C000C943C000C943C000C943C0060
:100030000C943C000C943C000C943C000C943C0050
:100040000C943C000C943C000C943C000C943C0040
:100050000C943C0011241FBECFE5D8E0DEBFCDBF1D
:1000600020E0A0E6B0E001C01D92A136B207E1F7A2
:100070000E9447000C94E9020C940000883228F496
:1000800060E00E94600080E0089581E0089580E0D3
:100090000E943E0081E00E943E0082E00E943E00FD
:1000A00083E00E943E0062E08AE10E946000789452
:1000B00060E080E00E94110280E00E94FF01FFCF1B
:1000C000982F969596959695953008F0F9C087707B
:1000D000613031F008F4A4C0623009F451C0EFC0BF
:1000E0009130C1F028F0923039F19330B9F1E7C086
:1000F0004AB321E030E0B90102C0660F771F8A954C
:10010000E2F7CB018095942F98239ABB9BB3892368
:100110008BBBD5C047B321E030E0B90102C0660F08
:10012000771F8A95E2F7CB018095942F982397BB90
:1001300098B3892388BBC3C044B321E030E0B90140
:1001400002C0660F771F8A95E2F7CB018095942F46
:10015000982394BB95B3892385BBB1C041B321E0FB
:1001600030E0B90102C0660F771F8A95E2F7CB0134
:100170008095942F982391BB92B3892382BB9FC013
:100180009130C1F028F0923039F19330B9F197C035
:100190004AB321E030E0B90102C0660F771F8A95AB
:1001A000E2F7CB01962F909594239ABB9BB3892BB2
:1001B0008BBB85C047B321E030E0B90102C0660FB8
:1001C000771F8A95E2F7CB01962F9095942397BBE2
:1001D00098B3892B88BB73C044B321E030E0B901E8
:1001E00002C0660F771F8A95E2F7CB01962F909594
:1001F000942394BB95B3892B85BB61C041B321E0A7
:1002000030E0B90102C0660F771F8A95E2F7CB0193
:10021000962F9095942391BB92B3892B82BB4FC0AC
:100220009130C1F028F0923039F19330B9F147C0E4
:100230004BB321E030E0B90102C0660F771F8A9509
:10024000E2F7CB01962F909594239BBB9AB3892B11
:100250008ABB35C048B321E030E0B90102C0660F67
:10026000771F8A95E2F7CB01962F9095942398BB40
:1002700097B3892B87BB23C045B321E030E0B90198
:1002800002C0660F771F8A95E2F7CB01962F9095F3
:10029000942395BB94B3892B84BB11C042B321E056
:1002A00030E0B90102C0660F771F8A95E2F7CB01F3
:1002B000962F9095942392BB91B3892B81BB08957F
:1002C00082E00895982F969596959695953008F02A
:1002D0008EC0633008F08DC08770613009F040C077
:1002E0009130A1F028F09230F9F0933059F183C0A9
:1002F0004BB321E030E0B90102C0660F771F8A9549
:10030000E2F7CB01842B8BBB80E0089548B321E05A
:1003100030E0B90102C0660F771F8A95E2F7CB0182
:10032000842B88BB80E0089545B321E030E0B9011B
:1003300002C0660F771F8A95E2F7CB01842B85BB3D
:1003400080E0089542B321E030E0B90102C0660FB9
:10035000771F8A95E2F7CB01842B82BB80E008955A
:10036000611144C09130A9F028F0923009F1933026
:1003700071F143C04BB321E030E0B90102C0660F18
:10038000771F8A95E2F7CB01809584238BBB80E0B1
:10039000089548B321E030E0B90102C0660F771F2D
:1003A0008A95E2F7CB018095842388BB80E008958D
:1003B00045B321E030E0B90102C0660F771F8A958E
:1003C000E2F7CB018095842385BB80E0089542B39A
:1003D00021E030E0B90102C0660F771F8A95E2F78D
:1003E000CB018095842382BB80E00895089582E04C
:1003F000089583E0089580E0089580E008958130B5
:1004000041F018F0823049F008958BB780648BBFBB
:1004100008958BB780688BBF08958BB780628BBFC0
:100420000895813049F120F0823009F449C00895DF
:10043000613069F028F0623089F06330B1F00895DE
:1004400085B78E7F85BF85B78D7F85BF089585B7BA
:10045000816085BF85B78D7F85BF089585B78E7F05
:1004600085BF85B7826085BF089585B7816085BFE8
:1004700085B7826085BF0895613069F028F06230E9
:1004800089F06330B1F0089585B78B7F85BF85B75C
:10049000877F85BF089585B7846085BF85B7877FCF
:1004A00085BF089585B78B7F85BF85B7886085BF79
:1004B000089585B7846085BF85B7886085BF089536
:1004C000623019F0633029F0089584B78F7B84BFC0
:1004D000089584B7806484BF08951F920F920FB669
:1004E0000F9211242F933F934F935F936F937F93BA
:1004F0008F939F93AF93BF93EF93FF93809160008F
:10050000811109C061E00E946201809160008F5FEB
:10051000809360004DC0813049F461E00E94620127
:10052000809160008F5F8093600042C0823049F408
:1005300061E00E946201809160008F5F80936000A3
:1005400037C0833049F461E00E946201809160000D
:100550008F5F809360002CC0843051F460E080E0B5
:100560000E946201809160008F5F8093600020C0D4
:10057000853051F460E081E00E946201809160006A
:100580008F5F8093600014C0863051F460E082E099
:100590000E946201809160008F5F8093600008C0BC
:1005A000873031F460E083E00E94620110926000C5
:1005B000FF91EF91BF91AF919F918F917F916F913B
:1005C0005F914F913F912F910F900FBE0F901F9011
:0605D0001895F894FFCF1E
:00000001FF
