S01900004C45442053657175656E63652056312E302E73726563D8
S11300000C942A000C9434000C9434000C943400A6
S11300100C9434000C9434000C9434000C9434008C
S11300200C9434000C9434000C9434000C9434007C
S11300300C9434000C9434000C9434000C9434006C
S11300400C9434000C9434000C9434000C9434005C
S11300500C94340011241FBECFE5D8E0DEBFCDBF21
S11300600E9462000C94FD020C940000883228F473
S113007062E00E94120180E0089581E008958832D0
S113008020F40E94B10280E0089581E0089588324E
S113009028F460E00E94120180E0089581E0089550
S11300A0883228F461E00E94140280E0089581E01F
S11300B00895883228F460E00E94140280E00895D4
S11300C081E00895CF93DF931F92CDB7DEB780E030
S11300D00E94470081E00E94470082E00E9447009E
S11300E083E00E94470081E10E943600198210E0FB
S11300F000E00F2EF7E0CF2EF02D0F2EF6E0DF2ECE
S1130100F02D0F2EF5E0EF2EF02D6894FF24F2F879
S1130110BE016F5F7F4F81E10E943F0089818111A1
S1130120F7CF11110EC0802F0E9450002FE58AEEE8
S113013090E0215080409040E1F700C0000011E0C1
S1130140E7CF113071F481E00E9450002FE58AEE70
S113015090E0215080409040E1F700C0000012E0A0
S1130160D7CF123071F482E00E9450002FE58AEE5E
S113017090E0215080409040E1F700C0000013E07F
S1130180C7CF133071F483E00E9450002FE58AEE4C
S113019090E0215080409040E1F700C000001F2D06
S11301A0B7CF143071F4802F0E9459002FE58AEEE6
S11301B090E0215080409040E1F700C000001E2DE7
S11301C0A7CF153071F481E00E9459002FE58AEE23
S11301D090E0215080409040E1F700C000001D2DC8
S11301E097CF163071F482E00E9459002FE58AEE11
S11301F090E0215080409040E1F700C000001C2DA9
S113020087CF173009F084CF83E00E9459002FE58F
S11302108AEE90E0215080409040E1F700C0000059
S1130220102F76CF982F969596959695953008F041
S1130230F9C08770613031F008F4A4C0623009F469
S113024051C0EFC09130C1F028F0923039F19330B1
S1130250B9F1E7C04AB321E030E0B90102C0660F4A
S1130260771F8A95E2F7CB018095942F98239ABB48
S11302709BB389238BBBD5C047B321E030E0B901E0
S113028002C0660F771F8A95E2F7CB018095942F01
S1130290982397BB98B3892388BBC3C044B321E098
S11302A030E0B90102C0660F771F8A95E2F7CB01EF
S11302B08095942F982394BB95B3892385BBB1C0B3
S11302C041B321E030E0B90102C0660F771F8A957F
S11302D0E2F7CB018095942F982391BB92B38923A5
S11302E082BB9FC09130C1F028F0923039F1933035
S11302F0B9F197C04AB321E030E0B90102C0660FFA
S1130300771F8A95E2F7CB01962F909594239ABB99
S11303109BB3892B8BBB85C047B321E030E0B90187
S113032002C0660F771F8A95E2F7CB01962F90954E
S1130330942397BB98B3892B88BB73C044B321E043
S113034030E0B90102C0660F771F8A95E2F7CB014E
S1130350962F9095942394BB95B3892B85BB61C04C
S113036041B321E030E0B90102C0660F771F8A95DE
S1130370E2F7CB01962F9095942391BB92B3892BEE
S113038082BB4FC09130C1F028F0923039F19330E4
S1130390B9F147C04BB321E030E0B90102C0660FA8
S11303A0771F8A95E2F7CB01962F909594239BBBF8
S11303B09AB3892B8ABB35C048B321E030E0B90138
S11303C002C0660F771F8A95E2F7CB01962F9095AE
S11303D0942398BB97B3892B87BB23C045B321E0F3
S11303E030E0B90102C0660F771F8A95E2F7CB01AE
S11303F0962F9095942395BB94B3892B84BB11C0FD
S113040042B321E030E0B90102C0660F771F8A953C
S1130410E2F7CB01962F9095942392BB91B3892B4D
S113042081BB089582E00895982F969596959695A8
S1130430953008F08EC0633008F08DC0877061304D
S113044009F040C09130A1F028F09230F9F09330D7
S113045059F183C04BB321E030E0B90102C0660F0B
S1130460771F8A95E2F7CB01842B8BBB80E008953C
S113047048B321E030E0B90102C0660F771F8A95C6
S1130480E2F7CB01842B88BB80E0089545B321E0DB
S113049030E0B90102C0660F771F8A95E2F7CB01FD
S11304A0842B85BB80E0089542B321E030E0B9019C
S11304B002C0660F771F8A95E2F7CB01842B82BBBB
S11304C080E00895611144C09130A9F028F0923081
S11304D009F1933071F143C04BB321E030E0B9012D
S11304E002C0660F771F8A95E2F7CB0180958423BB
S11304F08BBB80E0089548B321E030E0B90102C02D
S1130500660F771F8A95E2F7CB018095842388BB19
S113051080E0089545B321E030E0B90102C0660FE0
S1130520771F8A95E2F7CB018095842385BB80E011
S1130530089542B321E030E0B90102C0660F771F8D
S11305408A95E2F7CB018095842382BB80E00895ED
S1130550089582E0089583E0089580E0089580E09E
S11305600895982F969596959695953008F041C0E4
S113057087709130A1F028F09230F9F0933059F15E
S11305803AC029B330E0A90102C0559547958A9530
S1130590E2F7CA018170FB01808380E0089526B3ED
S11305A030E0A90102C0559547958A95E2F7CA0142
S11305B08170FB01808380E0089523B330E0A901BA
S11305C002C0559547958A95E2F7CA018170FB01EF
S11305D0808380E0089520B330E0A90102C05595DE
S11305E047958A95E2F7CA018170FB01808380E018
S11105F0089582E0089580E00895F894FFCF06
S9030000FC
